:100000000C943B010C9463010C9463010C94630108
:100010000C9463010C9463010C9463010C946301D0
:100020000C9463010C9463010C9484070C944F08A6
:100030000C9463010C9463010C9463010C946301B0
:100040000C9463010C9463010C9463010C946301A0
:100050000C9463010C9463010C9463010C943605B9
:100060000C9463010C9463010C9463010C94630180
:100070000C9463010C9463010C9463010C94630170
:100080000C9463010C9463010C9463010C94630160
:100090000C9463010C9463010C9463010C94630150
:1000A0000C9463010C9463010C946301CE01D101A3
:1000B000C001C401CA01F201F201F201D501D90166
:1000C000DD01E301E701F201ED01000000000000A5
:1000D00000002A2B280000000000000000000000A3
:1000E000000000000000000000002C9EB4A0A1A2AF
:1000F000A434A6A7A5AE362D3738271E1F202122EF
:1001000023242526B333B62EB7B89F8485868788E7
:10011000898A8B8C8D8E8F909192939495969798D7
:10012000999A9B9C9D2F3130A3AD35040506070895
:10013000090A0B0C0D0E0F101112131415161718B7
:10014000191A1B1C1DAFB1B0B5000000000024003F
:1001500027002A002D0030000000000025002800A4
:100160002B002E0031000000000023002600290093
:100170002C002F00040404040403040502020202FC
:100180000403020202020606060606060404020230
:100190000204040408020110408040102040804006
:1001A00080080204018040201002011080102040CD
:1001B00040200000000200090F0000030401000CB1
:1001C000000000000000000000000000000000002F
:1001D000080B0002020201000904000001020200F3
:1001E0000005240010010524010101042402060574
:1001F00024060001070581031000400904010002E4
:100200000A000000070502024000000705830240C3
:1002100000000403090412010002EF0201404F1B19
:100220000692000101020301537061726B46756E04
:1002300000537061726B46756E2050726F204D696D
:1002400063726F0005010906A1018502050719E027
:1002500029E71500250175019508810295017508AA
:1002600081039506750815002565050719002965A0
:100270008100C000650F11241FBECFEFDAE0DEBFA2
:10028000CDBF12E0A0E0B1E0E2EAFFE102C00590DC
:100290000D92A43FB107D9F725E0A4EFB2E001C069
:1002A0001D92A435B207E1F711E0CBE3D1E004C021
:1002B0002197FE010E94C40FCA33D107C9F70E94DB
:1002C0007F0A0C94CF0F0C9400002FB7F89487701E
:1002D0008093E9009091E800892F807295FF04C017
:1002E0009091F20080E4891B2FBF0895CF93DF9394
:1002F0001F92CDB7DEB76983DC01ED91FC910280DE
:10030000F381E02D41E050E0BE016F5F7F4F099522
:100310000F90DF91CF91089583E08093E900809161
:10032000F200882319F08AE38093E800089583E0BF
:100330000E94650190E00895FC018485958597FDF4
:100340000BC09FB7F89482E08093E9008091F2009F
:100350009FBF90E0019608959FB7F89482E0809344
:10036000E9008091F2009FBF90E0089590E0FC01C9
:100370003197EF30F105B0F5EA5AFF4F0C94C40FF6
:10038000809180008F7703C0809180008F7D809363
:100390008000089580918000877FF9CF84B58F77A2
:1003A00002C084B58F7D84BD0895809190008F77C1
:1003B00007C0809190008F7D03C080919000877F5F
:1003C0008093900008958091C0008F7703C0809142
:1003D000C0008F7D8093C00008958091C200877F08
:1003E0008093C2000895CF93DF93282F30E0F90166
:1003F000EE54FE4F8491F901ED56FE4FD491F90170
:10040000EC58FE4FC491CC2391F081110E94B601AB
:10041000EC2FF0E0EE0FFF1FEA59FE4FA591B491CB
:10042000EC91ED2381E090E021F480E002C080E0D7
:1004300090E0DF91CF9108951F93CF93DF93282F02
:1004400030E0F901EE54FE4F8491F901ED56FE4F74
:10045000D491F901EC58FE4FC491CC23C9F0162F6A
:1004600081110E94B601EC2FF0E0EE0FFF1FE85A59
:10047000FE4FA591B4918FB7F894111105C09C91CE
:10048000ED2FE095E92302C0EC91ED2BEC938FBFAB
:10049000DF91CF911F910895CF93DF9390E0FC01FE
:1004A000ED56FE4F2491FC01EC58FE4F84918823B9
:1004B00061F190E0880F991FFC01E65BFE4FC5914A
:1004C000D491FC01E85AFE4FA591B491611109C085
:1004D0009FB7F8948881209582238883EC912E23FE
:1004E0000BC0623061F49FB7F8943881822F8095F9
:1004F00083238883EC912E2B2C939FBF06C08FB74C
:10050000F894E8812E2B28838FBFDF91CF91089537
:100510003FB7F8948091120390911303A0911403B4
:10052000B091150326B5A89B05C02F3F19F0019681
:10053000A11DB11D3FBFBA2FA92F982F8827820F69
:10054000911DA11DB11DBC01CD0142E0660F771FB9
:10055000881F991F4A95D1F708958F929F92AF9265
:10056000BF92CF92DF92EF92FF926B017C010E94CB
:1005700088024B015C01C114D104E104F104F1F0E3
:100580000E948802DC01CB0188199909AA09BB09DC
:10059000883E9340A105B10570F321E0C21AD1084D
:1005A000E108F10888EE880E83E0981EA11CB11CBA
:1005B000C114D104E104F10419F7DDCFFF90EF90ED
:1005C000DF90CF90BF90AF909F908F9008952FB7FE
:1005D000F89460910E0370910F0380911003909135
:1005E00011032FBF0895089580E090E00895DC0185
:1005F000FB0112968C91129790E02481358182172D
:100600009307D1F491818081813A31F481E0913076
:1006100091F0933089F411C0813271F49B3021F450
:1006200082811F968C9305C09A3031F48281509656
:100630008C9381E00895089580E00895DC01FB012A
:1006400088E4808389E4818384E482831D969C917D
:100650001D979F709F5B93831D968D919C911E9714
:1006600024E0969587952A95E1F78F708F5B8483B8
:1006700085E00895FC0182818F5BFB01808381E02E
:1006800008950F931F93CF93DF938C01C0E0D0E0C8
:10069000C017D107B4F460E081E10E941C026DE74D
:1006A00070E080E090E00E94AD0261E081E10E9494
:1006B0001C026DE770E080E090E00E94AD022196A0
:1006C000E7CF6AEF70E080E090E0DF91CF911F917B
:1006D0000F910C94AD020F931F93CF93DF931F9252
:1006E000CDB7DEB78C01FC018485958597FF0EC0E0
:1006F000CE0101960E945A07019719F4298130E032
:1007000002C02FEF3FEFF80135872487F801848579
:1007100095850F90DF91CF911F910F910895CF9301
:10072000DF931F92CDB7DEB7FC018485958597FDD9
:1007300005C02FEF3FEF358724870BC0CE01019610
:100740000E945A07019719F4898190E002C08FEF47
:100750009FEF0F90DF91CF9108950E94CA0FEF9203
:10076000FF920F931F93CF93DF93FB0120812138DA
:1007700051F52381223239F5DC0112962C9130E0BB
:100780004481558142175307F1F4EC010B851C8518
:10079000E12CF12C0115110591F0F80144815581EE
:1007A0006281738180E80E94F6078F3FFFEF9F0709
:1007B00069F0E80EF91ED8010D911C91EBCF81E094
:1007C0008F87C70105C080E090E002C08FEF9FEFE8
:1007D000DF91CF911F910F91FF90EF900895CF93EC
:1007E000DF93CDB7DEB769970FB6F894DEBF0FBEC3
:1007F000CDBFFC01DB018C918F5F8C93BE016F5FDD
:100800007F4F89E1DB011D928A95E9F729E0298371
:1008100084E08A8391E09D8383E08E832A8721E2AE
:100820002B879C879D879F8722E2288B27E02B8B35
:1008300025E02C8B8E8B20E430E0388F2F8B998F26
:1008400082818B8395858685998B8A8B838180684D
:100850008D8B49E150E080E00E94F60769960FB663
:10086000F894DEBF0FBECDBFDF91CF9108954091C8
:10087000E2045091E3042091E0043091E104421736
:100880005307B4F49091E8009570E1F39091E8007B
:1008900092FD19C08093F1008091E2049091E304ED
:1008A00001968F739927892B19F48EEF8093E800B6
:1008B0008091E2049091E30401969093E304809385
:1008C000E20481E0089580E008957F928F929F92E4
:1008D000AF92BF92CF92DF92EF92FF920F931F934E
:1008E000CF93DF93C82E8B017A018091E9048111A7
:1008F00003C08FEF9FEF75C08091E60480FF05C0B5
:100900008091E00082608093E000CE2DDF2DD12C1D
:100910008AEF882E8C2D8770B82E8C2D8072A82E91
:100920008C2D8074982E9AE3792E209709F452C06A
:100930008C2D0E946501282F81110AC08A9488207D
:10094000C1F261E070E080E090E00E94AD02EDCF86
:1009500090E0C817D9070CF42C2F3FB7F894B09249
:10096000E9008091E80085FF33C0822F90E0C81B2A
:10097000D90BAA2029F02150A8F01092F100FBCF4A
:10098000F801C7FE07C0215058F044914093F10090
:100990003196F9CF215020F041914093F100FACFE8
:1009A000080F191FDD2019F07092E8000AC080912D
:1009B000E80085FD08C07092E800DD24D3942097FC
:1009C00039F0D12C05C0209719F491107092E800ED
:1009D0003FBFABCFD110ACCF5D9884E68093E704E6
:1009E000C701DF91CF911F910F91FF90EF90DF90A2
:1009F000CF90BF90AF909F908F907F900895CF93AE
:100A0000DF93EC0180911801882331F083E00E948C
:100A100065041816190634F081E090E09B838A8300
:100A200080E090E0DF91CF910895615030F0209107
:100A3000F100FC0120830196F8CF289884E680938A
:100A4000E804089580911A0381110DC082E080931B
:100A5000160384E080931703109219031092180371
:100A600081E080931A0386E193E008951F920F922C
:100A70000FB60F9211242F933F938F939F93AF93B1
:100A8000BF9380910E0390910F03A0911003B0913A
:100A9000110330910D0323E0230F2D3720F401962D
:100AA000A11DB11D05C026E8230F0296A11DB11D91
:100AB00020930D0380930E0390930F03A0931003D4
:100AC000B09311038091120390911303A09114032A
:100AD000B09115030196A11DB11D8093120390934F
:100AE0001303A0931403B0931503BF91AF919F918B
:100AF0008F913F912F910F900FBE0F901F901895DF
:100B00008091050381116BC081E08093F80280938E
:100B1000F9022EEF32E03093FB022093FA0210929A
:100B2000FD021092FC022DE131E03093F50220939A
:100B3000F402109200031092FF021092020310922E
:100B40000103809303038093040381EC8093FE02EE
:100B50000E942205FC0121818091F80290E0820F21
:100B6000911D089724F081E08093050338C0A2818D
:100B7000B381109729F484EF92E0938382830EC0AF
:100B800018968D919C911997009711F0DC01F8CF80
:100B900084EF92E019969C938E93189780818093AE
:100BA000F60281818093F70290818091F902890F8A
:100BB000808380E09091F8028917A8F6A091FA024C
:100BC000B091FB02A80FB11D9C91A181B0E0AA5F7A
:100BD000BE4F9C9391819F5F91838F5FEBCF84EF9A
:100BE00092E00895CF93DF93DC01683810F06858E5
:100BF00025C0E62FF0E067FF12C0E058F10981E060
:100C000090E001C0880FEA95EAF7809514969C91D0
:100C10001497892314968C93149760E00FC0E653C1
:100C2000FF4F6491662311F167FF08C014968C9101
:100C300014978D7F14968C9314976F77FD013696D9
:100C400086E0662321F09081961301C010828150C6
:100C500031968111F6CFED010E948005BE016C5FD7
:100C60007F4F0E94290781E090E002C080E090E081
:100C7000DF91CF910895CF93DF93DC01683810F0B6
:100C800068582DC0E62FF0E067FF11C0E058F10969
:100C900081E090E001C0880FEA95EAF714969C91F4
:100CA0001497892B14968C93149760E018C0E65320
:100CB000FF4F6491611109C081E090E013969C930D
:100CC0008E93129780E090E043C067FF08C01496AF
:100CD0008C911497826014968C9314976F77169664
:100CE0008C911697861751F117968C911797861746
:100CF00029F118968C911897861701F119968C9105
:100D000019978617D9F01A968C911A978617B1F011
:100D10001B968C911B97861789F0FD01369680E013
:100D200090E02191211105C0FD01E80FF91F6683B4
:100D300005C0019686309105A1F7BECFED010E9456
:100D40008005BE016C5F7F4F0E94290781E090E023
:100D5000DF91CF910895EF92FF921F93CF93DF938E
:100D6000EC01162F0E943B067C01612FCE010E94F0
:100D7000F205C7019927DF91CF911F91FF90EF9066
:100D80000895CF92DF92EF92FF920F931F93CF932C
:100D9000DF936C017A018B01C0E0D0E0CE15DF0556
:100DA00089F0D8016D918D01D601ED91FC910190F2
:100DB000F081E02DC6010995892B11F47E0102C056
:100DC0002196ECCFC701DF91CF911F910F91FF903A
:100DD000EF90DF90CF900895CF92DF92EF92FF9245
:100DE0000F931F93CF93DF931F92CDB7DEB7182FCA
:100DF000062FE42E862F880F8E5F99830E9437047A
:100E000083E00E943704F12EC12E9981D92E8C2DBA
:100E10008F19801798F4F601E7FE02C0849101C093
:100E200080810E943704182F80E00E9437048123BC
:100E3000FFEFCF1ADF0A8111EACF01C081E00F90E6
:100E4000DF91CF911F910F91FF90EF90DF90CF90A6
:100E50000895CF92DF92EF92FF920F931F93CF935B
:100E6000DF931F92CDB7DEB77C016B0182E08983EF
:100E700041E050E0BE016F5F7F4FF70183810E9428
:100E800065048C0197FD0CC0F701838148E050E0B8
:100E9000B60180640E94650497FD02C0800F911F17
:100EA0000F90DF91CF911F910F91FF90EF90DF9006
:100EB000CF900895FC018091E904811103C08FEF68
:100EC0009FEF08959FB7F89482E08093E900209106
:100ED000F20030E01216130614F421E030E0211580
:100EE000310559F0289884E68093E8048091F10058
:100EF00080838091F200882319F09FBFC901089573
:100F00008BE68093E800F9CF1F920F920FB60F92F5
:100F100011248F939F938091E1009091E100937F42
:100F20009093E10083FF0FC01092E90091E090934D
:100F3000EB001092EC0092E39093ED001092E90424
:100F400098E09093F00082FF20C093E09093E90036
:100F50009091F200992319F09AE39093E800909110
:100F6000E704992339F09091E70491509093E704B6
:100F7000992389F19091E804992339F09091E8043C
:100F800091509093E804992341F184FF10C080911F
:100F9000E2008E7E81608093E2008091E1008F7E8E
:100FA0008093E1008091E6048E7E806111C080FF15
:100FB00016C08091E2008E7E80618093E200809175
:100FC000E1008E7E8093E1008091E6048E7E816058
:100FD0008093E60404C05D9ACDCF289AD6CF9F9126
:100FE0008F910F900FBE0F901F901895DF92EF9288
:100FF000FF920F931F93CF93DF93D82E8A017B012B
:10100000E40EF51EEB01CE15DF0571F0D7FE03C02F
:10101000FE01849101C088810E94370421968111CC
:10102000F2CF8FEF9FEF01C0C801DF91CF911F91E9
:101030000F91FF90EF90DF9008950F931F93CF9340
:10104000DF931F92CDB7DEB782E0898342E450E0A0
:1010500060ED71E080E80E94F6070E942205DC0145
:1010600012960D911C9113970115110569F0D80185
:10107000ED91FC910280F381E02DBE016F5F7F4F07
:10108000C801099597FF07C089810F90DF91CF9123
:101090001F910F910895F80100851185E5CF1F92EA
:1010A0000F920FB60F921124CF92DF92EF92FF9220
:1010B0000F931F932F933F934F935F936F937F9360
:1010C0008F939F93AF93BF93EF93FF93CF93DF9350
:1010D000CDB7DEB76C97DEBFCDBF1092E90080912F
:1010E000E80083FFEDC168E0CE0145960E9415053A
:1010F00082EF8093E8008D8987FF05C09091E8001A
:1011000090FFFCCF03C09EEF9093E800982F90765D
:1011100009F0C6C09E892F89188D91110CC08038A6
:1011200029F48091E5048093F10002C01092F1004F
:101130001092F10048C1422F50E0512B913051F4F0
:10114000811141C14130510509F03DC18091E50453
:101150008D7F0BC0933061F4811135C14130510551
:1011600009F031C18091E50482608093E5042BC1D0
:10117000953041F48091E80080FFFCCF20682093F7
:10118000E30021C1963009F05FC0EB8CFC8C10921B
:10119000E9001092E3041092E204123091F51092EB
:1011A000E1041092E0040E941D0899E0BE016F5F07
:1011B0007F4FDB01E92F1D92EA95E9F799831A83A6
:1011C00091E09E8390EA98879AEF99872091E204B4
:1011D0003091E304275F3F4F3C832B838D83109234
:1011E000E9001092E3041092E204F092E104E0922C
:1011F000E00449E050E080E00E94F6070E941D08EC
:10120000E2C0F092E104E092E0040E942205DC01D9
:101210001296ED90FC901397E114F10409F4C0C00C
:10122000D701ED91FC910480F581E02DBE016B5E4C
:101230007F4FC7010995009719F00CF0C4C0C7C0D3
:10124000F701E084F184E8CF973009F4C0C098300A
:1012500021F481E08093F100B6C0993009F0B3C069
:10126000837009F0B4C0E7E0F1E081E021E036E30B
:101270009081992361F08093E9002093EB00919194
:101280009093EC003093ED008F5F873089F78EE705
:101290008093EA001092EA008F898093E90493C05A
:1012A0008B8D9C8D1092E9001092E3041092E20461
:1012B0009093E1048093E004898D811156C08E895A
:1012C0009D89913A59F4813209F081C047E050E09C
:1012D00061E171E080E00E94F60775C0913209F08B
:1012E00076C0833289F4888D90E0982F88272F89E3
:1012F000822BA0E0B0E080930D0190930E01A093AB
:101300000F01B09310015FC0803269F48091E80052
:1013100082FFFCCF67E081E191E00E9415058BEF31
:101320008093E80006C0823209F04DC08F89809317
:1013300018018091E404882319F0EEEFFAE002C06E
:10134000E0E0F8E08091110190911201A091130169
:10135000B0911401803B9440A105B10509F07BC018
:101360008091180180FF93C076C00E942205DC01A5
:1013700012960D911C9113970115110541F1D80199
:10138000ED91FC910190F081E02DBE016B5E7F4FED
:10139000C8010995811117C0F80100851185ECCFAE
:1013A000113009F44EC0133091F48F89882309F469
:1013B00045C0823081F440E862E181E392E00E941E
:1013C000EC06882321F08EEF8093E80079C081E25B
:1013D0008093EB0075C0813029F440E868E088E232
:1013E00092E0EDCF833099F70E942205DC0112963E
:1013F000ED90FC9013978E010F5F1F4F6801E11471
:10140000F10479F0D701ED91FC910680F781E02D90
:10141000B801C7010995080F111DF701E084F18497
:10142000EECFD8011C92F60101900020E9F7319728
:10143000BF016C197D0940E0C601C1CF62E172E0D5
:1014400002C066E172E06115710509F2FB01449189
:1014500050E080E840CF0FB6F894A89580916000E6
:10146000886180936000109260000FBEA895EE3FE7
:101470002AE0F20739F08091FE0A9091FF0A9183E9
:101480008083A1CF1092FF0A1092FE0A9CCFEE3FFC
:101490008AE0F80731F0808191819093FF0A809370
:1014A000FE0A87E797E7918380839BE088E10FB688
:1014B000F894A895809360000FBE9093600083CF4E
:1014C0006C960FB6F894DEBF0FBECDBFDF91CF9103
:1014D000FF91EF91BF91AF919F918F917F916F910C
:1014E0005F914F913F912F911F910F91FF90EF903E
:1014F000DF90CF900F900FBE0F901F9018957894AB
:1015000084B5826084BD84B5816084BD85B5826008
:1015100085BD85B5816085BD80916E0081608093B9
:101520006E00109281008091810082608093810022
:101530008091810081608093810080918000816032
:1015400080938000809191008260809391008091CF
:1015500091008160809391008091900081608093E0
:1015600090008091C10084608093C1008091C1008F
:1015700082608093C1008091C10081608093C1002E
:101580008091C30081608093C3008091C00082601D
:101590008093C0008091C20081608093C2008091DE
:1015A0007A00846080937A0080917A0082608093D0
:1015B0007A0080917A00816080937A0080917A002D
:1015C000806880937A001092E9041092E5041092EA
:1015D000E6048091D70081608093D70080EA8093F1
:1015E000D80089B5806189BD89B5826089BD09B49B
:1015F00000FEFDCF61E070E080E090E00E94AD026F
:101600008091D8008F7C80618093D8008091E00029
:10161000807F8093E0008091E1008E7E8093E100E6
:101620008DE08093E200559A209AEEEFFFE78591D6
:1016300094918B3F9C4D19F481E08093E40480E009
:1016400090E020E030E0F901EE5DFC4F1182108265
:1016500001962E5F3F4F80349105A9F79093DD04EA
:101660008093DC0461E082E00E944C0261E083E050
:101670000E944C0261E084E00E944C0261E085E03F
:101680000E944C0261E086E00E944C0261E087E02B
:101690000E944C0261E088E00E944C0261E089E017
:1016A0000E944C0262E08AE00E944C0262E080E10B
:1016B0000E944C0262E08FE00E944C0262E08EE0E9
:1016C0000E944C0262E082E10E944C0262E083E1EF
:1016D0000E944C0262E084E10E944C0262E085E1DB
:1016E0000E944C0262E081E00E944C0261E081E1D4
:1016F0000E944C028FEF9FEF9093F7048093F604C3
:1017000060E082E00E941C0261E083E00E941C0213
:1017100061E084E00E941C0261E085E00E941C02FE
:1017200061E086E00E941C0261E087E00E941C02EA
:1017300061E088E00E941C0261E089E00E941C02D6
:10174000C1E0D0E0D093D904C093D80460E082E037
:101750000E941C028AE00E94F301892B49F4109236
:10176000D9041092D804D0930301C093020111C090
:1017700060E082E00E941C0285E10E94F301892B57
:1017800041F41092D9041092D804109203011092DF
:10179000020160E082E00E941C0280E10E94F301ED
:1017A000892B89F48091000190910101892B39F4F2
:1017B00081E090E0909301018093000104C01092B9
:1017C00001011092000168EE73E080E090E00E9459
:1017D000AD028091000190910101019721F481E017
:1017E00090E00E94410380910201909103010197D2
:1017F00021F483E090E00E94410361E081E10E94D6
:101800001C02CDEC4C2E55245A94D8E4CD2ED12C6C
:1018100082E090E09093050180930401C09104015F
:10182000D0910501CA30D1050CF047C360E082E0D9
:101830000E944C0260E083E00E944C0260E084E081
:101840000E944C0260E085E00E944C0260E086E06D
:101850000E944C0260E087E00E944C0260E088E059
:101860000E944C0260E089E00E944C02C230D10527
:1018700021F461E089E00E944C0260E089E00E946E
:101880001C0289E090E09093DF048093DE04C33073
:10189000D10521F461E083E00E944C0260E083E026
:1018A0000E941C0283E090E09093DF048093DE04AA
:1018B000C430D10521F461E084E00E944C0260E074
:1018C00084E00E941C0284E090E09093DF04809307
:1018D000DE04C530D10521F461E085E00E944C02B0
:1018E00060E085E00E941C0285E090E09093DF04B8
:1018F0008093DE04C630D10521F461E086E00E94C9
:101900004C0260E086E00E941C0286E090E090932A
:10191000DF048093DE04C730D10521F461E087E065
:101920000E944C0260E087E00E941C0287E090E089
:101930009093DF048093DE04C830D10521F461E088
:1019400088E00E944C0260E088E00E941C0288E06F
:1019500090E09093DF048093DE04299721F461E006
:1019600082E00E944C0260E082E00E941C0282E061
:1019700090E09093DF048093DE041092DD041092D7
:10198000DC04EE24E394F12CA9EC2A2E33243A94BF
:10199000B8EDAB2EBB24BA94C091DC04D091DD0429
:1019A000C930D1050CF07EC28091040190910501EF
:1019B0000297E9E0E89F8001E99F100D11240C0FC8
:1019C0001D1F1093DB040093DA04809102019091B3
:1019D00003018130910541F42091D8043091D9045C
:1019E000C80183509E4F09C0892BE1F42091D8048F
:1019F0003091D904C8018B5D9E4F232B41F4209177
:101A0000D6043091D704FC01E20FF31F03C0FC01A0
:101A1000E057FF4F8081082E000C990B9093D5045E
:101A20008093D404209741F48AE00E94F301970147
:101A3000281B390BC9010AC0C130D10561F480E10E
:101A40000E94F301FE01E81BF90BCF019093D30430
:101A50008093D20421C0C230D10559F48EE00E9497
:101A6000F3019701281B390B3093D3042093D20440
:101A700018C0C330D10559F485E10E94F301F70184
:101A8000E81BF90BF093D304E093D2040FC0C430E9
:101A9000D10511F482E118C0C530D10511F483E1FC
:101AA00009C0C630D10511F484E10EC0C730D1059C
:101AB00041F48FE00E94F301F701E81BF90BCF011D
:101AC00009C0289759F481E00E94F3019701281B6F
:101AD000390BC9019093D3048093D2048091000103
:101AE00090910101019709F03AC10E94E702E801D3
:101AF000CC0FDD1FCC0FDD1FFE01EE54FC4F20810B
:101B0000318142815381DC01CB01821B930BA40BF9
:101B1000B50BC397A105B10508F421C18091D2048A
:101B20009091D3048130910509F0DDC04801880C03
:101B3000991CC4018E5D9C4F3C01FC018081918108
:101B4000892B09F00CC18091D4049091D504918324
:101B5000808360914203709143036115710569F0C0
:101B60008091260390912703892B39F08AE395E031
:101B70000E94F205F301B182A0826091420370914C
:101B800043036115710579F0809128039091290331
:101B9000892B49F08AE395E00E94F205F401EE5D9D
:101BA000FC4F3182208260914203709143036115A2
:101BB000710589F080912A0390912B03892B59F0AC
:101BC0008AE395E00E94F205F401EE5DFC4F23EC00
:101BD0003FEF31832083609142037091430361158D
:101BE000710589F080912C0390912D03892B59F078
:101BF0008AE395E00E94F205F401EE5DFC4F85EC6E
:101C00009FEF91838083609142037091430361153C
:101C1000710589F080912E0390912F03892B59F043
:101C20008AE395E00E94F205F401EE5DFC4F27EC9B
:101C30003FEF31832083609142037091430361152C
:101C4000710589F08091300390913103892B59F00F
:101C50008AE395E00E94F205F401EE5DFC4F8AED07
:101C60009FEF9183808360914203709143036115DC
:101C7000710579F080919E0390919F03892B49F023
:101C80008AE395E00E94F205F401EE5DFC4F51827B
:101C900040820031110519F00A33110531F48091A9
:101CA000D8049091D904019789F40E94E702CE5498
:101CB000DC4F688379838A839B83F401EE5DFC4F5C
:101CC00060818AE395E00E943B0649C00E94E702DA
:101CD000CE54DC4F688379838A839B83D092D70468
:101CE000C092D6043CC0892BD1F5F801EE0FFF1F3E
:101CF000EE5DFC4F808091808114910481F1003170
:101D0000110519F00A33110531F48091D80490912E
:101D1000D904019771F40E94E702CE54DC4F688326
:101D200079838A839B83682D8AE395E00E94F2057C
:101D30000CC00E94E702CE54DC4F688379838A830B
:101D40009B831092D7041092D604E091DA04F091AC
:101D5000DB04EE0FFF1FEE5DFC4F118210828091BD
:101D6000000190910101892B09F092C00E94E702C5
:101D7000A091DA04B091DB04ED01CC0FDD1FCC0F94
:101D8000DD1FFE01EE54FC4F008111812281338161
:101D9000AB01BC01401B510B620B730B433351056C
:101DA0006105710508F474C02091D2043091D30408
:101DB00021303105B1F5FD01EE0FFF1FEE5DFC4F47
:101DC00020813181232B09F063C01091D40420912C
:101DD000D50410832183A031B10511F0DA9731F4D5
:101DE0008091D8049091D904019771F40E94E70280
:101DF000CE54DC4F688379838A839B83612F8AE387
:101E000095E00E943B0644C00E94E702CE54DC4F9E
:101E1000688379838A839B83D092D704C092D60447
:101E200037C0232BA9F58D01000F111FF801EE5DBE
:101E3000FC4F808091808114910451F1A031B10553
:101E400011F0DA9731F48091D8049091D904019778
:101E500071F40E94E702CE54DC4F688379838A8351
:101E60009B83682D8AE395E00E94F2050CC00E94D6
:101E7000E702CE54DC4F688379838A839B83109278
:101E8000D7041092D604F801EE5DFC4F1182108247
:101E90008091DC049091DD0401969093DD048093A1
:101EA000DC047ACD61E08091DE040E941C02809106
:101EB0000401909105010196ADCC80E090E0892B62
:101EC00009F4A6CC0E940000A3CC1092ED0410925D
:101ED000EC0488EE93E0A0E0B0E08093EE049093F1
:101EE000EF04A093F004B093F10489ED92E0909395
:101EF000EB048093EA048FEF9FEF9093F7048093B5
:101F0000F60410923D0510923C058BEE92E0909302
:101F10003B0580933A0580914C05811113C01092C6
:101F200047051092460584E492E09093490580931A
:101F300048058FE290E090934B0580934A0581E03D
:101F400080934C050E948005FC01A385B485109701
:101F500029F486E495E0948783870BC08D919C914A
:101F60001197009711F0DC01F9CF86E495E08D938D
:101F70009C932585368580914A0590914B05820F6B
:101F8000931F968785870895EE0FFF1F0590F491A4
:101F9000E02D099481E090E0F8940C94CF0FF89430
:021FA000FFCF71
:101FA20001000100020000C18081000000FFFFFF6C
:101FB200FF00E100000000000000000000F702EF57
:101FC20003AF031E03D4B0D7C8C2C4C6D900337747
:101FD20061347A73658100357264366366747800A1
:101FE20037796738626875760039696A306D6B6F68
:101FF2006E002B706C2D2E3A222C00232A3BD285A8
:102002003DD32FCD31B28032208771B100D1B0D80B
:10201200C9C3C5C7DA005C5741245A53458100251C
:102022005244264346545800275947284248555699
:102032000029494A304D4B4F4E002B504C5F3E5BBE
:10204200603C00232A5DD2853DD63FCD21B280403F
:10205200208751B100B2B0D7C8C2C4C6D900337705
:1020620061347A7365810035726436636674780010
:1020720037796738626875760039696A306D6B6FD7
:102082006E002D706C3D2E3B5B2C00D15D27D285FE
:102092005CD42FCD31DF0932208071B100D4B0D7AA
:1020A200C8C2C4C6D900337761347A7365810035FA
:1020B2007264366366747800377967386268757659
:1020C2000039696A306D6B6F6E002B706C2D2E3A81
:1020D200402C00232A3BD2853DD32FCD31B2803212
:1020E200208771B100D1B0D8C9C3C5C7DA005C5727
:1020F20041245A53458100255244264346545800F0
:1021020027594728424855560029494A304D4B4FD6
:102112004E002B504C5F3E5B603C00232A5DD28513
:102122003DD63FCD21B28022208751B100B2B0D737
:10213200C8C2C4C6D900337761347A736581003569
:1021420072643663667478003779673862687576C8
:102152000039696A306D6B6F6E002D706C3D2E3BDD
:102162005B2C00D15D27D2855CD42FCD31DF0932C3
:10217200208071B100000000007601FF0497018CFD
:10218200019C018F036B0300000000AB06C106F443
:0421920002F3020052
:00000001FF
