:100000000C943B010C9463010C9463010C94630108
:100010000C9463010C9463010C9463010C946301D0
:100020000C9463010C9463010C9436070C94010842
:100030000C9463010C9463010C9463010C946301B0
:100040000C9463010C9463010C9463010C946301A0
:100050000C9463010C9463010C9463010C9461048F
:100060000C9463010C9463010C9463010C94630180
:100070000C9463010C9463010C9463010C94630170
:100080000C9463010C9463010C9463010C94630160
:100090000C9463010C9463010C9463010C94630150
:1000A0000C9463010C9463010C946301A801AB01EF
:1000B0009A019E01A401CC01CC01CC01AF01B30196
:1000C000B701BD01C101CC01C70100000000000063
:1000D00000002A2B280000000000000000000000A3
:1000E000000000000000000000002C9EB4A0A1A2AF
:1000F000A434A6A7A5AE362D3738271E1F202122EF
:1001000023242526B333B62EB7B89F8485868788E7
:10011000898A8B8C8D8E8F909192939495969798D7
:10012000999A9B9C9D2F3130A3AD35040506070895
:10013000090A0B0C0D0E0F101112131415161718B7
:10014000191A1B1C1DAFB1B0B5000000000024003F
:1001500027002A002D0030000000000025002800A4
:100160002B002E0031000000000023002600290093
:100170002C002F00040404040403040502020202FC
:100180000403020202020606060606060404020230
:100190000204040408020110408040102040804006
:1001A00080080204018040201002011080102040CD
:1001B00040200000000200090F0000030401000CB1
:1001C000000000000000000000000000000000002F
:1001D000080B0002020201000904000001020200F3
:1001E0000005240010010524010101042402060574
:1001F00024060001070581031000400904010002E4
:100200000A000000070502024000000705830240C3
:1002100000000403090412010002EF0201404F1B19
:100220000692000101020301537061726B46756E04
:1002300000537061726B46756E2050726F204D696D
:1002400063726F0005010906A1018502050719E027
:1002500029E71500250175019508810295017508AA
:1002600081039506750815002565050719002965A0
:100270008100C000330E11241FBECFEFDAE0DEBFD5
:10028000CDBF12E0A0E0B1E0EEE3FDE102C00590D9
:100290000D92A23FB107D9F725E0A2EFB2E001C06D
:1002A0001D92A235B207E1F711E0CBE3D1E004C023
:1002B0002197FE010E94920ECA33D107C9F70E940E
:1002C000310A0C949D0E0C940000CF92DF92EF92B5
:1002D000FF920F931F93CF93DF936C017A018B01F1
:1002E000C0E0D0E0CE15DF0589F0D8016D918D0119
:1002F000D601ED91FC910190F081E02DC6010995A8
:10030000892B11F47E0102C02196ECCFC701DF9149
:10031000CF911F910F91FF90EF90DF90CF900895B4
:1003200090E0FC013197EF30F105B0F5EA5AFF4F4C
:100330000C94920E809180008F7703C08091800092
:100340008F7D80938000089580918000877FF9CF12
:1003500084B58F7702C084B58F7D84BD0895809168
:1003600090008F7707C0809190008F7D03C08091AF
:100370009000877F8093900008958091C0008F77D0
:1003800003C08091C0008F7D8093C000089580914C
:10039000C200877F8093C2000895CF93DF93282FF8
:1003A00030E0F901EE54FE4F8491F901ED56FE4F15
:1003B000D491F901EC58FE4FC491CC2391F08111F6
:1003C0000E949001EC2FF0E0EE0FFF1FEA59FE4F64
:1003D000A591B491EC91ED2381E090E021F480E0CF
:1003E00002C080E090E0DF91CF9108951F93CF93FA
:1003F000DF93282F30E0F901EE54FE4F8491F9018C
:10040000ED56FE4FD491F901EC58FE4FC491CC2328
:10041000C9F0162F81110E949001EC2FF0E0EE0F31
:10042000FF1FE85AFE4FA591B4918FB7F8941111B0
:1004300005C09C91ED2FE095E92302C0EC91ED2BD6
:10044000EC938FBFDF91CF911F910895CF93DF93EE
:1004500090E0FC01ED56FE4F2491FC01EC58FE4F5C
:100460008491882361F190E0880F991FFC01E65B7D
:10047000FE4FC591D491FC01E85AFE4FA591B4916D
:10048000611109C09FB7F8948881209582238883E1
:10049000EC912E230BC0623061F49FB7F894388141
:1004A000822F809583238883EC912E2B2C939FBFE2
:1004B00006C08FB7F894E8812E2B28838FBFDF9179
:1004C000CF9108952FB7F89460910C0370910D03AC
:1004D00080910E0390910F032FBF0895089580E03F
:1004E00090E00895DC01FB0112968C91129790E048
:1004F0002481358182179307D1F491818081813ADB
:1005000031F481E0913091F0933089F411C081325F
:1005100071F49B3021F482811F968C9305C09A3030
:1005200031F4828150968C9381E00895089580E0A3
:100530000895DC01FB0188E4808389E4818384E4FD
:1005400082831D969C911D979F709F5B93831D9640
:100550008D919C911E9724E0969587952A95E1F7B9
:100560008F708F5B848385E00895FC0182818F5BAF
:10057000FB01808381E008950E94980EEF92FF9224
:100580000F931F93CF93DF93FB012081213851F507
:100590002381223239F5DC0112962C9130E044811E
:1005A000558142175307F1F4EC010B851C85E12CB2
:1005B000F12C0115110591F0F801448155816281FA
:1005C000738180E80E94A8078F3FFFEF9F0769F0C3
:1005D000E80EF91ED8010D911C91EBCF81E08F87B9
:1005E000C70105C080E090E002C08FEF9FEFDF9170
:1005F000CF911F910F91FF90EF900895CF93DF93CC
:10060000CDB7DEB769970FB6F894DEBF0FBECDBF8A
:10061000FC01DB018C918F5F8C93BE016F5F7F4F7C
:1006200089E1DB011D928A95E9F729E0298384E0BD
:100630008A8391E09D8383E08E832A8721E22B8742
:100640009C879D879F8722E2288B27E02B8B25E0C4
:100650002C8B8E8B20E430E0388F2F8B998F82810A
:100660008B8395858685998B8A8B838180688D8B1A
:1006700049E150E080E00E94A80769960FB6F8941F
:10068000DEBF0FBECDBFDF91CF9108954091E00452
:100690005091E1042091DE043091DF0442175307AA
:1006A000B4F49091E8009570E1F39091E80092FD28
:1006B00019C08093F1008091E0049091E1040196CB
:1006C0008F739927892B19F48EEF8093E80080911E
:1006D000E0049091E10401969093E1048093E0049A
:1006E00081E0089580E008952FB7F8948770809393
:1006F000E9009091E800892F807295FF04C09091E5
:10070000F20080E4891B2FBF08957F928F929F9201
:10071000AF92BF92CF92DF92EF92FF920F931F930F
:10072000CF93DF93C82E8B017A018091E70481116A
:1007300003C08FEF9FEF71C08091E40480FF05C07C
:100740008091E00082608093E000CE2DDF2DD12CDF
:100750008AEF882E8C2D8770B82E8C2D8072A82E53
:100760008C2D8074982E9AE3792E209709F44EC030
:100770008C2D0E947403282F811106C08A94882032
:10078000C1F20E94EB06F1CF90E0C817D9070CF434
:100790002C2F3FB7F894B092E9008091E80085FFD4
:1007A00033C0822F90E0C81BD90BAA2029F021501A
:1007B000A8F01092F100FBCFF801C7FE07C021504E
:1007C00058F044914093F1003196F9CF215020F038
:1007D00041914093F100FACF080F191FDD2019F065
:1007E0007092E8000AC08091E80085FD08C0709210
:1007F000E800DD24D394209739F0D12C05C0209750
:1008000019F491107092E8003FBFAFCFD110B0CF74
:100810005D9884E68093E504C701DF91CF911F9135
:100820000F91FF90EF90DF90CF90BF90AF909F908F
:100830008F907F900895615030F02091F100FC017D
:1008400020830196F8CF289884E68093E6040895E3
:100850008091D60481110DC082E08093D20484E09F
:100860008093D3041092D5041092D40481E0809335
:10087000D60482ED94E008953FB7F8948091100378
:1008800090911103A0911203B091130326B5A89B78
:1008900005C02F3F19F00196A11DB11D3FBFBA2F12
:1008A000A92F982F8827820F911DA11DB11DBC0172
:1008B000CD0142E0660F771F881F991F4A95D1F737
:1008C00008951F920F920FB60F9211242F933F930A
:1008D0008F939F93AF93BF9380910C0390910D03DF
:1008E000A0910E03B0910F0330910B0323E0230F6F
:1008F0002D3720F40196A11DB11D05C026E8230F58
:100900000296A11DB11D20930B0380930C039093BD
:100910000D03A0930E03B0930F03809110039091E9
:100920001103A0911203B09113030196A11DB11DF3
:100930008093100390931103A0931203B0931303B9
:10094000BF91AF919F918F913F912F910F900FBECB
:100950000F901F9018958091030381116BC081E067
:100960008093F6028093F7022CEF32E03093F90285
:100970002093F8021092FB021092FA022BE131E070
:100980003093F3022093F2021092FE021092FD02C5
:10099000109200031092FF028093010380930203E0
:1009A00081EC8093FC020E942804FC01218180914B
:1009B000F60290E0820F911D089724F081E0809369
:1009C000030338C0A281B381109729F482EF92E02B
:1009D000938382830EC018968D919C9119970097EE
:1009E00011F0DC01F8CF82EF92E019969C938E9380
:1009F000189780818093F40281818093F502908121
:100A00008091F702890F808380E09091F602891728
:100A1000A8F6A091F802B091F902A80FB11D9C911F
:100A2000A181B0E0AC5FBE4F9C9391819F5F9183A9
:100A30008F5FEBCF82EF92E00895CF93DF93DC01DD
:100A4000683810F0685825C0E62FF0E067FF12C044
:100A5000E058F10981E090E001C0880FEA95EAF7DB
:100A6000809514969C911497892314968C931497CF
:100A700060E00FC0E653FF4F6491662311F167FFFA
:100A800008C014968C9114978D7F14968C931497AC
:100A90006F77FD01369686E0662321F090819613EC
:100AA00001C01082815031968111F6CFED010E9474
:100AB000AB04BE016C5F7F4F0E94050781E090E0B0
:100AC00002C080E090E0DF91CF910895CF93DF9353
:100AD000DC01683810F068582DC0E62FF0E067FFA1
:100AE00011C0E058F10981E090E001C0880FEA955B
:100AF000EAF714969C911497892B14968C9314976B
:100B000060E018C0E653FF4F6491611109C081E0B5
:100B100090E013969C938E93129780E090E043C0F0
:100B200067FF08C014968C911497826014968C937A
:100B300014976F7716968C911697861751F1179622
:100B40008C911797861729F118968C91189786170C
:100B500001F119968C9119978617D9F01A968C91F4
:100B60001A978617B1F01B968C911B97861789F000
:100B7000FD01369680E090E02191211105C0FD0134
:100B8000E80FF91F668305C0019686309105A1F72D
:100B9000BECFED010E94AB04BE016C5F7F4F0E948F
:100BA000050781E090E0DF91CF910895EF92FF92E9
:100BB0001F93CF93DF93EC01162F0E9466057C01F3
:100BC000612FCE010E941D05C7019927DF91CF91AA
:100BD0001F91FF90EF900895FC018091E70481112F
:100BE00003C08FEF9FEF08959FB7F89482E0809342
:100BF000E9002091F20030E01216130614F421E00F
:100C000030E02115310559F0289884E68093E604F8
:100C10008091F10080838091F200882319F09FBFBA
:100C2000C90108958BE68093E800F9CFCF93DF9355
:100C30001F92CDB7DEB76983DC01ED91FC91028094
:100C4000F381E02D41E050E0BE016F5F7F4F0995D9
:100C50000F90DF91CF91089583E08093E900809118
:100C6000F200882319F08AE38093E8000895CF9377
:100C7000DF931F92CDB7DEB7FC018485958597FD84
:100C800005C02FEF3FEF358724870BC0CE010196BB
:100C90000E94EC05019719F4898190E002C08FEF62
:100CA0009FEF0F90DF91CF9108950F931F93CF93F4
:100CB000DF931F92CDB7DEB78C01FC01848595854B
:100CC00097FF0EC0CE0101960E94EC05019719F422
:100CD000298130E002C02FEF3FEFF80135872487EC
:100CE000F801848595850F90DF91CF911F910F9129
:100CF0000895FC018485958597FD0BC09FB7F894F6
:100D000082E08093E9008091F2009FBF90E001961D
:100D100008959FB7F89482E08093E9008091F200F3
:100D20009FBF90E00895CF93DF93EC01809116016F
:100D3000882331F083E00E9485031816190634F0E9
:100D400081E090E09B838A8380E090E0DF91CF9107
:100D5000089583E00E94740390E00895CF92DF929B
:100D6000EF92FF920F931F93CF93DF931F92CDB714
:100D7000DEB7182F062FE42E862F880F8E5F9983FB
:100D80000E94460383E00E944603F12EC12E998102
:100D9000D92E8C2D8F19801798F4F601E7FE02C02A
:100DA000849101C080810E944603182F80E00E9438
:100DB00046038123FFEFCF1ADF0A8111EACF01C07A
:100DC00081E00F90DF91CF911F910F91FF90EF90F5
:100DD000DF90CF900895CF92DF92EF92FF920E9422
:100DE0003C046B017C010E943C04DC01CB018C19AA
:100DF0009D09AE09BF09883E9340A105B10598F34E
:100E0000FF90EF90DF90CF900895CF92DF92EF9216
:100E1000FF920F931F93CF93DF931F92CDB7DEB74F
:100E20007C016B0182E0898341E050E0BE016F5F8D
:100E30007F4FF70183810E9485038C0197FD0CC0D1
:100E4000F701838148E050E0B60180640E94850389
:100E500097FD02C0800F911F0F90DF91CF911F91DE
:100E60000F91FF90EF90DF90CF9008951F920F9217
:100E70000FB60F9211248F939F938091E100909170
:100E8000E100937F9093E10083FF0FC01092E9008F
:100E900091E09093EB001092EC0092E39093ED00C0
:100EA0001092E70498E09093F00082FF20C093E056
:100EB0009093E9009091F200992319F09AE39093AE
:100EC000E8009091E504992339F09091E504915060
:100ED0009093E504992389F19091E604992339F0E0
:100EE0009091E60491509093E604992341F184FF98
:100EF00010C08091E2008E7E81608093E20080913C
:100F0000E1008F7E8093E1008091E4048E7E806119
:100F100011C080FF16C08091E2008E7E80618093B8
:100F2000E2008091E1008E7E8093E1008091E404F4
:100F30008E7E81608093E40404C05D9ACDCF289AB0
:100F4000D6CF9F918F910F900FBE0F901F90189545
:100F5000DF92EF92FF920F931F93CF93DF93D82EE0
:100F60008A017B01E40EF51EEB01CE15DF0571F061
:100F7000D7FE03C0FE01849101C088810E94460310
:100F800021968111F2CF8FEF9FEF01C0C801DF9151
:100F9000CF911F910F91FF90EF90DF9008950F93E5
:100FA0001F93CF93DF931F92CDB7DEB782E0898383
:100FB00042E450E060ED71E080E80E94A8070E94E2
:100FC0002804DC0112960D911C911397011511054F
:100FD00069F0D801ED91FC910280F381E02DBE0112
:100FE0006F5F7F4FC801099597FF07C089810F90F8
:100FF000DF91CF911F910F910895F8010085118520
:10100000E5CF1F920F920FB60F921124CF92DF926D
:10101000EF92FF920F931F932F933F934F935F9302
:101020006F937F938F939F93AF93BF93EF93FF93B0
:10103000CF93DF93CDB7DEB76C97DEBFCDBF1092F5
:10104000E9008091E80083FFEDC168E0CE0145969C
:101050000E941B0482EF8093E8008D8987FF05C002
:101060009091E80090FFFCCF03C09EEF9093E800C2
:10107000982F907609F0C6C09E892F89188D9111FE
:101080000CC0803829F48091E3048093F10002C001
:101090001092F1001092F10048C1422F50E0512B04
:1010A000913051F4811141C14130510509F03DC1E8
:1010B0008091E3048D7F0BC0933061F4811135C1C1
:1010C0004130510509F031C18091E3048260809381
:1010D000E3042BC1953041F48091E80080FFFCCF00
:1010E00020682093E30021C1963009F05FC0EB8CAB
:1010F000FC8C1092E9001092E1041092E00412308E
:1011000091F51092DF041092DE040E94CF0799E05F
:10111000BE016F5F7F4FDB01E92F1D92EA95E9F772
:1011200099831A8391E09E8390EA98879AEF998732
:101130002091E0043091E104275F3F4F3C832B83F3
:101140008D831092E9001092E1041092E004F09275
:10115000DF04E092DE0449E050E080E00E94A8074E
:101160000E94CF07E2C0F092DF04E092DE040E940A
:101170002804DC011296ED90FC901397E114F10421
:1011800009F4C0C0D701ED91FC910480F581E02DF8
:10119000BE016B5E7F4FC7010995009719F00CF0F7
:1011A000C4C0C7C0F701E084F184E8CF973009F4E8
:1011B000C0C0983021F481E08093F100B6C099302E
:1011C00009F0B3C0837009F0B4C0E5E0F1E081E05C
:1011D00021E036E39081992361F08093E900209328
:1011E000EB0091919093EC003093ED008F5F87308E
:1011F00089F78EE78093EA001092EA008F89809346
:10120000E70493C08B8D9C8D1092E9001092E1044D
:101210001092E0049093DF048093DE04898D8111A5
:1012200056C08E899D89913A59F4813209F081C066
:1012300047E050E06FE071E080E00E94A80775C0D1
:10124000913209F076C0833289F4888D90E0982F2E
:1012500088272F89822BA0E0B0E080930B01909328
:101260000C01A0930D01B0930E015FC0803269F4B0
:101270008091E80082FFFCCF67E08FE091E00E9460
:101280001B048BEF8093E80006C0823209F04DC04A
:101290008F89809316018091E204882319F0EEEF84
:1012A000FAE002C0E0E0F8E080910F0190911001B7
:1012B000A0911101B0911201803B9440A105B105AC
:1012C00009F07BC08091160180FF93C076C00E9418
:1012D0002804DC0112960D911C911397011511053C
:1012E00041F1D801ED91FC910190F081E02DBE011A
:1012F0006B5E7F4FC8010995811117C0F801008509
:101300001185ECCF113009F44EC0133091F48F8960
:10131000882309F445C0823081F440E862E181E32A
:1013200092E00E94AE06882321F08EEF8093E800C1
:1013300079C081E28093EB0075C0813029F440E8E8
:1013400068E088E292E0EDCF833099F70E942804AC
:10135000DC011296ED90FC9013978E010F5F1F4FEA
:101360006801E114F10479F0D701ED91FC91068058
:10137000F781E02DB801C7010995080F111DF7018C
:10138000E084F184EECFD8011C92F6010190002098
:10139000E9F73197BF016C197D0940E0C601C1CF63
:1013A00062E172E002C066E172E06115710509F266
:1013B000FB01449150E080E840CF0FB6F894A89527
:1013C00080916000886180936000109260000FBE81
:1013D000A895EE3F2AE0F20739F08091FE0A90913D
:1013E000FF0A91838083A1CF1092FF0A1092FE0A18
:1013F0009CCFEE3F8AE0F80731F080819181909395
:10140000FF0A8093FE0A87E797E7918380839BE03A
:1014100088E10FB6F894A895809360000FBE909372
:10142000600083CF6C960FB6F894DEBF0FBECDBFC1
:10143000DF91CF91FF91EF91BF91AF919F918F91EC
:101440007F916F915F914F913F912F911F910F91DC
:10145000FF90EF90DF90CF900F900FBE0F901F90F6
:101460001895789484B5826084BD84B5816084BD0C
:1014700085B5826085BD85B5816085BD80916E0032
:10148000816080936E001092810080918100826063
:1014900080938100809181008160809381008091A0
:1014A00080008160809380008091910082608093B1
:1014B00091008091910081608093910080919000D3
:1014C0008160809390008091C10084608093C1000E
:1014D0008091C10082608093C1008091C1008160D1
:1014E0008093C1008091C30081608093C30080918C
:1014F000C00082608093C0008091C20081608093B0
:10150000C20080917A00846080937A0080917A0092
:10151000826080937A0080917A00816080937A0063
:1015200080917A00806880937A001092E70410928C
:10153000E3041092E4048091D70081608093D70087
:1015400080EA8093D80089B5806189BD89B58260C1
:1015500089BD09B400FEFDCF0E94EB068091D80042
:101560008F7C80618093D8008091E000807F8093A1
:10157000E0008091E1008E7E8093E1008DE0809319
:10158000E200559A209AEEEFFFE7859194918B3F08
:101590009C4D19F481E08093E20480E090E020E02B
:1015A00030E0F901EC5EFC4F1182108201962E5F53
:1015B0003F4F80349105A9F79093CF048093CE04D8
:1015C00061E082E00E94260261E083E00E94260240
:1015D00061E084E00E94260261E085E00E9426022C
:1015E00061E086E00E94260261E087E00E94260218
:1015F00061E088E00E94260261E089E00E94260204
:1016000062E08AE00E94260262E080E10E942602F7
:1016100062E08FE00E94260262E08EE00E942602D5
:1016200062E082E10E94260262E083E10E942602DB
:1016300062E084E10E94260262E085E10E942602C7
:1016400062E081E00E94260260E082E00E94F601F2
:1016500061E083E00E94F60161E084E00E94F6010F
:1016600061E085E00E94F60161E086E00E94F601FB
:1016700061E087E00E94F60161E088E00E94F601E7
:1016800061E089E00E94F601C1E0D0E0D093CB0494
:10169000C093CA0460E082E00E94F6018AE00E94E2
:1016A000CD01892B69F41092CB041092CA04D09317
:1016B0000101C0930001EDEC4E2E55245A94E9C06F
:1016C00060E082E00E94F60185E10E94CD01892B55
:1016D00091F71092CB041092CA041092010110925B
:1016E0000001E9CF60E082E00E94260260E083E032
:1016F0000E94260260E084E00E94260260E085E00D
:101700000E94260260E086E00E94260260E087E0F8
:101710000E94260260E088E00E94260260E089E0E4
:101720000E942602C230D10521F461E089E00E94C6
:10173000260260E089E00E94F6013092D1042092F6
:10174000D004C330D10521F461E083E00E94260279
:1017500060E083E00E94F60183E090E09093D10482
:101760008093D004C430D10521F461E084E00E946C
:10177000260260E084E00E94F60184E090E090930D
:10178000D1048093D004C530D10521F461E085E017
:101790000E94260260E085E00E94F60185E090E06C
:1017A0009093D1048093D004C630D10521F461E038
:1017B00086E00E94260260E086E00E94F60186E054
:1017C00090E09093D1048093D004C730D10521F4E8
:1017D00061E087E00E94260260E087E00E94F60157
:1017E00087E090E09093D1048093D004C830D10575
:1017F00021F461E088E00E94260260E088E00E9417
:10180000F60188E090E09093D1048093D00429976A
:1018100021F461E082E00E94260260E082E00E9402
:10182000F60182E090E09093D1048093D00410926E
:10183000CF041092CE04CC24C394D12C59ECA52E05
:10184000BB24BA9468ED862E99249A94C091CE0454
:10185000D091CF04C930D10534F161E08091D0043A
:101860000E94F601809102019091030101969093EC
:10187000030180930201C0910201D0910301CA309B
:10188000D1050CF42FCF80E090E0892B11F00E945D
:10189000000082E090E0909303018093020179E0E0
:1018A000272E312CE8CF80910201909103010297FD
:1018B00039E0389F8001399F100D11240C0F1D1F36
:1018C0001093CD040093CC0480910001909101010C
:1018D0008130910541F42091CA043091CB04C801B4
:1018E00085509E4F09C0892BE1F42091CA043091A4
:1018F000CB04C8018D5D9E4F232B41F42091C80479
:101900003091C904FC01E20FF31F03C0FC01E05752
:10191000FF4F8081082E000C990B9093C704809391
:10192000C604209741F48AE00E94CD01F601E81B2D
:10193000F90BCF010AC0C130D10561F480E10E94EA
:10194000CD019E01281B390BC9019093C5048093DA
:10195000C40421C0C230D10559F48EE00E94CD01EB
:10196000F601E81BF90BF093C504E093C40418C01A
:10197000C330D10559F485E10E94CD019601281BA1
:10198000390B3093C5042093C4040FC0C430D10573
:1019900011F482E118C0C530D10511F483E109C00A
:1019A000C630D10511F484E10EC0C730D10541F431
:1019B0008FE00E94CD019601281B390BC90109C097
:1019C000289759F481E00E94CD01F601E81BF90B3C
:1019D000CF019093C5048093C4040E946202E80181
:1019E000CC0FDD1FCC0FDD1FFE01EC55FC4F20811D
:1019F000318142815381DC01CB01821B930BA40B0B
:101A0000B50BC397A105B10508F423C18091C404A7
:101A10009091C5048130910509F0DFC07801EE0C8A
:101A2000FF1C97012C5E3C4F3901F90180819181A7
:101A3000892B09F00EC18091C6049091C70491834F
:101A4000808360913403709135036115710569F0ED
:101A50008091180390911903892B39F088EE94E056
:101A60000E941D05F3019182808260913403709180
:101A700035036115710579F080911A0390911B036C
:101A8000892B49F088EE94E00E941D05F701EC5E79
:101A9000FC4FB182A08260913403709135036115CF
:101AA000710589F080911C0390911D03892B59F0D9
:101AB00088EE94E00E941D05F701EC5EFC4F23ECDC
:101AC0003FEF3183208360913403709135036115BA
:101AD000710589F080911E0390911F03892B59F0A5
:101AE00088EE94E00E941D05F701EC5EFC4F85EC4A
:101AF0009FEF91838083609134037091350361156A
:101B0000710589F08091200390912103892B59F070
:101B100088EE94E00E941D05F701EC5EFC4F27EC77
:101B20003FEF318320836091340370913503611559
:101B3000710589F08091220390912303892B59F03C
:101B400088EE94E00E941D05F701EC5EFC4F8AEDE3
:101B50009FEF918380836091340370913503611509
:101B6000710579F08091900390919103892B49F050
:101B700088EE94E00E941D05F701EC5EFC4F518257
:101B800040820031110519F00A33110531F48091BA
:101B9000CA049091CB04019789F40E946202CC554B
:101BA000DC4F688379838A839B83F701EC5EFC4F6B
:101BB000608188EE94E00E9466054BC00E9462023C
:101BC000CC55DC4F688379838A839B83E8E4F0E01B
:101BD000F093C904E093C8043CC0892BD1F5F80107
:101BE000EE0FFF1FEC5EFC4FE080F180E114F1048A
:101BF00081F10031110519F00A33110531F480919A
:101C0000CA049091CB04019771F40E946202CC55F2
:101C1000DC4F688379838A839B836E2D88EE94E002
:101C20000E941D050CC00E946202CC55DC4F6883E7
:101C300079838A839B831092C9041092C804E0912F
:101C4000CC04F091CD04EE0FFF1FEC5EFC4F11822F
:101C500010828091CE049091CF0401969093CF048E
:101C60008093CE04F3CD1092F7041092F60488EE20
:101C700093E0A0E0B0E08093F8049093F904A0937F
:101C8000FA04B093FB0487ED92E09093F5048093FF
:101C9000F4048FEF9FEF909301058093000510925D
:101CA000EB041092EA0489EE92E09093E9048093A9
:101CB000E80480914A05811113C0109245051092E5
:101CC000440584E492E090934705809346058FE2B3
:101CD00090E0909349058093480581E080934A0500
:101CE0000E94AB04FC01A385B485109729F484E419
:101CF00095E0948783870BC08D919C9111970097F5
:101D000011F0DC01F9CF84E495E08D939C93258557
:101D100036858091480590914905820F931F9687DB
:101D200085870895EE0FFF1F0590F491E02D09942B
:0E1D300081E090E0F8940C949D0EF894FFCFA3
:101D3E000100020000C18081000000FFFFFFFF00D4
:101D4E00E1000000000000000000007202FE02BE72
:101D5E00029902D4B0D7C8C2C4C6D9003377613451
:101D6E007A736581003572643663667478003779EC
:101D7E006738626875760039696A306D6B6F6E0010
:101D8E002B706C2D2E3A222C00232A3BD2853DD36C
:101D9E002FCD31B28032208771B100D1B0D8C9C3F6
:101DAE00C5C7DA005C5741245A5345810025524479
:101DBE00264346545800275947284248555600296D
:101DCE00494A304D4B4F4E002B504C5F3E5B603CB2
:101DDE0000232A5DD2853DD63FCD21B2804020879B
:101DEE0051B100B2B0D7C8C2C4C6D900337761347E
:101DFE007A7365810035726436636674780037795C
:101E0E006738626875760039696A306D6B6F6E007F
:101E1E002D706C3D2E3B5B2C00D15D27D2855CD4A2
:101E2E002FCD31DF0932208071B100D4B0D7C8C2B6
:101E3E00C4C6D900337761347A7365810035726414
:101E4E00366366747800377967386268757600395C
:101E5E00696A306D6B6F6E002B706C2D2E3A402CB4
:101E6E0000232A3BD2853DD32FCD31B2803220873D
:101E7E0071B100D1B0D8C9C3C5C7DA005C574124CF
:101E8E005A5345810025524426434654580027593B
:101E9E004728424855560029494A304D4B4F4E006F
:101EAE002B504C5F3E5B603C00232A5DD2853DD6B5
:101EBE003FCD21B28022208751B100B2B0D7C8C227
:101ECE00C4C6D900337761347A7365810035726484
:101EDE0036636674780037796738626875760039CC
:101EEE00696A306D6B6F6E002D706C3D2E3B5B2CF6
:101EFE0000D15D27D2855CD42FCD31DF0932208011
:101F0E0071B1000000000016069306A9062C067992
:101F1E00063706550600000000D60565016F026EF5
:021F2E000200AF
:00000001FF
